:100000007AEF0DF068961200046ED8CF05F0E0CFBD
:1000100006F00001E9CF0CF0EACF07F0E1CF08F0DD
:10002000E2CF09F0D9CF0AF0DACF0BF0F3CF12F01C
:10003000F4CF13F0FACF14F000C00EF001C00FF0AF
:1000400002C010F003C011F0F2AA2AEF00F0F2B4DF
:10005000B2EF09F0F2A630EF00F0F2B06DEF0AF067
:10006000A0AA36EF00F0A1BA02EF08F00EC000F02F
:100070000FC001F010C002F011C003F00CC0E9FF86
:1000800007C0EAFF078E08C0E1FF09C0E2FF0AC00F
:10009000D9FF0BC0DAFF12C0F3FF13C0F4FF14C086
:1000A000FAFF045006C0E0FF05C0D8FF1000F76A51
:1000B000BE0FF66E000EF7220900F5501200000385
:1000C00002FFFFFFFFFFFFFFFFFFFFFFFFFFF76ADA
:1000D000DE0FF66E000EF7220900F550120000FF49
:1000E00002FFFFFFFFFFFFFFFFFFFFFFFFFFF76ABA
:1000F000FE0FF66E000EF7220900F55012004000C8
:100100000B004000000000000000000000000000A4
:100110000000000000000000000000000000F76A7E
:100120002E0FF66E010EF7220900F5501200400066
:10013000000040000000000000000000000000007F
:100140000000000000000000000000000000F76A4E
:100150005E0FF66E010EF7220900F550120009023B
:100160004300020100803209040000010202010084
:1001700005240010010424020205240600010524C0
:10018000010001070581030B00FA09040100020ABE
:10019000000000070502024000010705820240003E
:1001A0000100F76AB20FF66E010EF7220900F55052
:1001B00012000200F76AC40FF66E010EF722090062
:1001C000F550120012171B20FFFFFFFFF76ADC0F2C
:1001D000F66E010EF7220900F5501200120110010F
:1001E0000200004005240B00000101020001F76A33
:1001F000FE0FF66E010EF7220900F55012000403FF
:100200000904080343004300530020034300430054
:1002100053002000550053004200200074006F007E
:10022000200055004100520054006D92699468A46A
:1002300002D06894FCD70EEF08F0400E0401016F65
:10024000040E036F180E026F880E006F046B040E0D
:10025000076F580E066F0001120070A002D0EDDF8C
:100260007090689A15EF08F06A6A68921AEF08F0C1
:10027000D391D2BFD381D29FD251100803E2000E96
:10028000016E20D0D3A110D0036AD251F2CFD4F0A6
:10029000F29E0DDFD4BFF28EFF0802E1000E01D006
:1002A000010E016E0FD00ED0036AD251F2CFD4F0FE
:1002B000F29E0DDFD4BFF28EFF0802E1000E01D0E6
:1002C000010E016E1200D751D903F3CF01F0F4CF24
:1002D00000F0DA03F3500026D851D903F350002080
:1002E000026E1200036AD151700FE96E0F0E0320E7
:1002F000EA6EEF6AD1C0D2F0BBDF015222E0D86BC8
:10030000D1C0D7F0DA6B080ED96FDDDF01C0E9FF8D
:10031000040E0224EA6EEF6AD86BD1C0D7F0DA6B14
:10032000080ED96FD0DF02C0D3F001C0D2F0040EA6
:10033000D227000ED323D2C0E9FF040ED325EA6EE4
:10034000EF6A1200010ED06FD0510F0805E3D0C044
:10035000D1F0C8DFD02BF8D71200CA6BC96B250EBD
:10036000C86F800EC76FEA6A2B0EE96EE26AC70E8D
:10037000E16E020E016EE6CFEEFF012EFCD72D6A74
:100380002E6AC76BEA6A2F0EE96EE26AC70EE16E4B
:10039000E6CFEEFFC76BEA6A300EE96EE26AC70E7F
:1003A000E16EE6CFEEFF080EC76FEA6A310EE96E26
:1003B000E26AC70EE16EE6CFEEFF7D6B7C91336A99
:1003C000326A7B6B1E907E6B1200286A276AC66BAE
:1003D000C65101080AE3036AC651290FE96E000EEF
:1003E0000320EA6EEF6AC62BF3D7B7DF186A010E57
:1003F000196E176A12006A6A686A9F0E6B6E3D0E6C
:10040000696E6E6A9FDFE1DF160E706E68A602D01D
:10041000F9DDFCD76D9811DF030E226E1FEF08F097
:10042000698468986D8224EF08F0689C29EF08F0D1
:10043000CBC023F0120023681200C96B275028108C
:100440003CE0C9513F0839E31A5005E0020A0EE0CA
:10045000010A17E020D026C003F02550F2CFCBF0E0
:10046000F29E75DECBBFF28ECA6F15D026C003F0A8
:100470002550F2CFCBF0F29EBADECBBFF28ECA6F20
:100480000AD026C003F02550F2CFCBF0F29E9EDEBC
:10049000CBBFF28ECA6F252AD8B4262A2750D8B4EB
:1004A00028062706C951C92B580FE96E040EEA6EBB
:1004B000D8B0EA2ACAC0EFFFC1D72750281004E1FC
:1004C000C951400801E0176AC9C0CBF0B1DF120082
:1004D000266A256A1A6A04011B51010A000107E015
:1004E000030A0BE0010A0DE0220A27E049D0286A3E
:1004F000120E276E030E1A6E45D0286A430E276E21
:1005000041D0020E1A6E036A04011A511B0FE96EE4
:10051000000E0320EA6E266AEFCF25F026C003F016
:100520002550F2CFC8F0F29E000161DEC8BFF28E06
:10053000036A276E03C028F025D0036A04011A510C
:10054000F2CFC8F0F29E000135DEC8BFF28E036A1A
:10055000256E03C026F0253C02D026520FE026C0AF
:1005600003F02550F2CFC8F0F29EF1DDC8BFF28E45
:10057000036A276E03C028F005D002D05CDF11D0DB
:100580005ADF0FD004011F5308E1285203E127501E
:100590001E5D03E2286A1EC427F0010E176E0001DB
:1005A0004CDF17EF04F0C85304E1040E226ECADEDC
:1005B000E9D0050E226E040ECB6F980ECA6F010EA5
:1005C000C96FC9510F08D8A0DDD0C9C0D1F08ADEEB
:1005D000CC6B036AC951F2CFD0F0F29E78DDD0BF68
:1005E000F28EFF0865E0040ECC6FD890C935036A1F
:1005F000F2CFD0F0F29E93DD0900F5CF03F0D0BF2B
:10060000F28ECD6F03C0CEF0D86BC9C0D7F0DA6BD5
:10061000080ED96F58DE01C0D0F0010E0124016E22
:10062000000E0220036E01C0E9FF040E0324EA6EEF
:10063000CDC0EFFFD86BC9C0D7F0DA6B080ED96F09
:1006400042DE01C0D0F0020E0124016E000E022035
:10065000036E01C0E9FF040E0324EA6ECBC0ECFF79
:10066000ED52CAC0EFFFD890C935036AF2CFD0F07F
:10067000F29E55DD0900F5CF03F0D0BFF28ECA27F8
:100680000350CB23880ECF6FCEA101D0CF81CEA354
:1006900001D0CF83D86BC9C0D7F0DA6B080ED96F01
:1006A00012DE01C0E9FF040E0224EA6ECFC0EFFFA4
:1006B000036AC951F2CFD0F0F29EF9DCD0BFF28EBE
:1006C000FF0845E0CC83D86BC9C0D7F0DA6B080EC1
:1006D000D96FF9DD02C0D1F001C0D0F0040ED027EF
:1006E000000ED123020ED025016E000ED121036E23
:1006F00001C0E9FF040E0324EA6ECBC0ECFFED520B
:10070000CAC0EFFFD890C935036AF2CFD0F0F29E8D
:10071000EEDC0900F5CF03F0D0BFF28ECA270350FC
:10072000CB23D86BC9C0D7F0DA6B080ED96FCBDDFD
:1007300002C0D1F001C0D0F0040ED027000ED123AA
:10074000D0C0E9FF040ED125EA6E400EEF6ECC5109
:10075000060802E10E0ECC6F036AC951F2CFD0F049
:10076000F29EA5DCD0BFF28E010801E0CC89036ABD
:10077000C951700FE96E0F0E0320EA6ECCC0EFFF77
:10078000C92B1FD711EF04F004011951000A000111
:100790000DE0010A14E0020A1FE0060A29E0030A3C
:1007A0002EE00E0A2EE0010A32E040D019C058F4C3
:1007B0000401596B020E0001CB6F3ADE38D0040100
:1007C0001A2D07D0010E19160001CB6B31DE03D0B4
:1007D0000401000130DE2BD004011A2D06D019824D
:1007E0000001CB6B25DE03D00401000124DE1FD005
:1007F000020E176E1AC424F0CB6B1ADE18D068D61E
:1008000016D018C058F4010ECB6F12DE10D00401C0
:100810001A51010809E31AC418F01AC4C8F00001FB
:10082000C2D6CB6B05DE0401000101D004DE8CEFE3
:1008300005F018C0C8F004011951000A000105E0D4
:100840000A0A0BE0010A2BE03CD00401586B596BFB
:10085000020E0001CB6FECDD35D0C8531EE0010E57
:10086000C85D036AF2CFC9F0F29E9BDCC9BFF28E6D
:10087000016E04011C5DD8A002D000010ED0036AF5
:100880001C51290FE96E000E0320EA6EEFCF58F4D9
:10089000010E0001CB6FCCDD01D0CDDD13D0C853EC
:1008A0000EE0036A04011C51290FE96E000E0320BB
:1008B000EA6E1AC4EFFF0001CB6BBADD01D0BBDDDD
:1008C00001D0B9DD8CEF05F0C991C8BFC981C89FBF
:1008D000C9A117D0D86BC8C0D7F0DA6B080ED96F92
:1008E000F2DC02C0CBF001C0CAF0040ECA27000E31
:1008F000CB23CAC0E9FF040ECB25EA6E880EEF6E4B
:100900000DD0D86BC8C0D7F0DA6B080ED96FDBDC1E
:1009100001C0E9FF040E0224EA6EEF6A04EF05F05D
:10092000C991C8BFC981C89FC9A117D0D86BC8C019
:10093000D7F0DA6B080ED96FC6DC02C0CBF001C06D
:10094000CAF0040ECA27000ECB23CAC0E9FF040E6A
:10095000CB25EA6E840EEF6E0ED0D86BC8C0D7F0F0
:10096000DA6B080ED96FAFDC01C0E9FF040E022478
:10097000EA6E840EEF6E0AEF05F0C991C8BFC98117
:10098000C89FC9A117D0D86BC8C0D7F0DA6B080EC2
:10099000D96F99DC02C0CCF001C0CBF0040ECB279C
:1009A000000ECC23CBC0E9FF040ECC25EA6EEFCFBE
:1009B000CAF00ED0D86BC8C0D7F0DA6B080ED96F6A
:1009C00082DC01C0E9FF040E0224EA6EEFCFCAF018
:1009D000CAAF02D0CAB502D0000E01D0010E016E1E
:1009E00014EF05F01CC4D2F043DC015228E00401EE
:1009F0001951010A000105E0020A09E0030A0DE0AD
:100A00001DD01CC4C8F060D7CB6B12DD18D01CC43D
:100A1000C8F086D7CB6B0CDD12D00401586B596B34
:100A20001CC4C8F00001A9D7015204E0010E040162
:100A3000586F0001020ECB6FFBDC01D0FCDC8CEFA9
:100A400005F0FE0E236E120004011C2D01D002D011
:100A50001C5348E11951000A00010BE0010A0DE0A6
:100A6000210A1CE0010A1FE0030A2EE0010A31E01E
:100A700037D0010E7E6FE5DF34D0040EEA6E580EDB
:100A8000E96EE26A340EE16E080E016EE6CFEEFF0B
:100A9000012EFCD71EC4CBF0CBDC23D0020E7E6F20
:100AA0007C81CFDF1ED0040EEA6E580EE96EE26A3A
:100AB0002B0EE16E070E016EE6CFEEFF012EFCD786
:100AC000070ECB6FB5DC0DD01AC47DF0CB6BB0DC5C
:100AD00008D01AC433F01BC432F0CB6BA9DC01D0B0
:100AE000AADC040100018CEF05F0176A040118511B
:100AF0007F0B000A000107E0010A07E0030A07E094
:100B0000230A07E008D040D607D093D605D06AD78D
:100B100003D09AD701D08FDCB8EF07F0D86BC9C0EB
:100B2000D7F0DA6B080ED96F63EC01F001C0E9FF72
:100B3000040E0224EA6EEFCFCBF0CA51020806E1A0
:100B4000CBAD02D0CA6B02D0010ECA6FCA510308E6
:100B50001AE1840ECB6FD86BC9C0D7F0DA6B080EE0
:100B6000D96F63EC01F002C0CFF001C0CEF0040EEB
:100B7000CE27000ECF23CEC0E9FF040ECF25EA6EAC
:100B8000840EEF6E07D0CA2D03D0C80ECB6F02D0F3
:100B9000880ECB6FD890C935036AF2CFCEF0F29EA3
:100BA0008FEC00F00900F5CF03F0CEBFF28ECC6FD2
:100BB00003C0CDF0D86BC9C0D7F0DA6B080ED96F7F
:100BC00063EC01F001C0CEF0010E0124016E000EB5
:100BD0000220036E01C0E9FF040E0324EA6ECCC0BC
:100BE000EFFFCDA101D0CB81CDA301D0CB83D86BBA
:100BF000C9C0D7F0DA6B080ED96F63EC01F001C001
:100C0000E9FF040E0224EA6ECBC0EFFF1200036A74
:100C1000D651700FE96E0F0E0320EA6EEF5219E005
:100C2000D86BD6C0D7F0DA6B080ED96F63EC01F041
:100C300002C0D8F001C0D7F0040ED727000ED82389
:100C4000D7C0E9FF040ED825EA6EEFCFD9F0D9AFAF
:100C500002D0000E01D0010E016E1200D1C0D6F0FC
:100C6000D6DF0152D8B47DD0D86BD1C0D7F0DA6BC3
:100C7000080ED96F63EC01F002C0D7F001C0D6F0C6
:100C8000040ED627000ED723010ED625016E000EC6
:100C9000D721036E01C0E9FF040E0324EA6ED2C01F
:100CA000EFFFD45102081EE1D86BD1C0D7F0DA6B48
:100CB000080ED96F63EC01F002C0D7F001C0D6F086
:100CC000040ED627000ED723D6C0E9FF040ED72581
:100CD000EA6EEFCFD5F0D5AD02D0D46B02D0010EC5
:100CE000D46F18D0D451040815E1D86BD1C0D7F017
:100CF000DA6B080ED96F63EC01F001C0E9FF040E56
:100D00000224EA6EEFCFD5F0D5AD03D0010ED46F3B
:100D100001D0D46BD42D03D0C80ED56F02D0880E6D
:100D2000D56FD3A101D0D581D3A301D0D583D86B02
:100D3000D1C0D7F0DA6B080ED96F63EC01F002C0B6
:100D4000D7F001C0D6F0040ED627000ED723D6C0A8
:100D5000E9FF040ED725EA6ED5C0EFFF010E016E44
:100D600002D0000E016E12007E51010A03E0030A58
:100D700013E024D0EA6A340EE96E040EE26E180E17
:100D8000E16E080E016EE6CFEEFF012EFCD7CB6BB5
:100D900018EC02F07E6B13D0EA6A2B0EE96E040E9B
:100DA000E26E180EE16E070E016EE6CFEEFF012E29
:100DB000FCD77E6BCB6B18EC02F001D07E6B15EF8D
:100DC00007F0D86BC9C0D7F0DA6B080ED96F63ECA7
:100DD00001F002C0CBF001C0CAF0010E0124016E87
:100DE000000E0220036E01C0E9FF040E0324EA6E28
:100DF000036AEFCF01F003C002F00BEF07F01E9083
:100E0000020EC96FCA6F8ADE10EF07F01E80206ADB
:100E1000020EC96FD6D701C01FF01F5201E1EFD7F4
:100E20001AEF07F0C85302E19FD704D0C851020857
:100E300001E1ECD71200C9C06EFFC95303E0040EF4
:100E4000226E02D0020E226E2BEF07F0186A176A8C
:100E500024C0C9F0F0D797EF07F0C9C0D6F0D7DEAD
:100E6000015243E0D86BC9C0D7F0DA6B080ED96FD6
:100E700063EC01F002C0D2F001C0D1F0040ED12722
:100E8000000ED223020ED125016E000ED221036E78
:100E900001C0E9FF040E0324EA6EECCFD0F0ED525E
:100EA000EFCFCFF0D0C0EAFFCFC0E9FFCBC0E2FF69
:100EB000CAC0E1FFCDC002F0CCC001F0015202E097
:100EC000022A02D0025206E0E6CFEEFF012EFCD746
:100ED000022EFAD7C9C0D1F0CDC0D3F0CCC0D2F029
:100EE000CEC0D4F0BBDE015002D0000E016E120065
:100EF0007B530EE0020EC96FCB6B3C0ECA6FCD6BFD
:100F00007BC0CCF0020ECE6FA8DF015201E07B6BFC
:100F10001200EEDF9CEF07F0C8530AE1172C03D054
:100F20001DEC02F004D017500208D8B48FD704D0BB
:100F3000C851020801E1EDD712002130C66FC63357
:100F4000C6331F0EC617215241E1040100513C0B6C
:100F50000001C76F430E040100170001C751340898
:100F60001EE104010451800B01E0046B0001BDD5BA
:100F70006D98233C05D0C96B030ECA6FCFDD0ED030
:100F8000C96B020ECA6FCADD2350FE0807E0D16BA1
:100F9000D36B23C0D2F0040ED46F60DE16D0C751DD
:100FA000040813E1C86B3EDFC96B020ECA6FB6DDE1
:100FB0002350FE080AE0233C01D007D0D16BD36B4D
:100FC00023C0D2F0010ED46F49DE1AD0215004089C
:100FD0000EE12368C86BA0DF233C01D007D0D16BA2
:100FE000D36B23C0D2F0020ED46F38DE09D021B407
:100FF00004D0C6C0C8F016DF03D0C6C0C8F08CDF6E
:1010000033EF08F0A19A2252D8B433D06852D8B442
:1010100030D068A403D069B415EF01F06DB229D0C7
:1010200068AA03D069BA2DEF01F068A203D069B2B3
:1010300034EF01F068A003D069B0FBEF01F068A8BD
:1010400003D069B810EF02F068AC03D069BC15EFAB
:1010500002F0C56B68A608D069A606D06CCF21F057
:1010600002EC00F06AD701D004D0C551C52B0308AB
:10107000F1E236EF00F0852D10D086530EE1892D78
:101080000AD0010E8A5F000E8B5B8C5B8D5B010EBC
:101090008E6F896B02D0010E896F855310E1862D0A
:1010A0000ED0892D0AD0010E8A27000E8B238C23A7
:1010B0008D23010E8E6F896B02D0010E896FB9EFFF
:1010C00009F0CD6BCB6B0A0ECC6FCA6BC96BC86BCA
:1010D000C76BC551C61105E1006A016A026A036A5D
:1010E0003FD1CD51CD2B036AC525E96EC6510320F2
:1010F000EA6EEFCFCEF0CE512D080DE1010ECB6F91
:10110000CD51CD2B036AC525E96EC6510320EA6E89
:10111000EFCFCEF00DD0CE512B080AE1CD51CD2B23
:10112000036AC525E96EC6510320EA6EEFCFCEF003
:10113000CE512F08D8B0FCD0CE513908D8A0F8D065
:10114000CE51300821E1036ACD51C525E96EC65163
:101150000320EA6EEF5078080AE0036ACD51C525F6
:10116000E96EC6510320EA6EEF5058080DE1100EEB
:10117000CC6FCD2BCD51CD2B036AC525E96EC65161
:101180000320EA6EEFCFCEF0CC510A0844E1CE51F5
:101190002F0840E2CE5139083DE3D890C735D06FD3
:1011A000C835D16FC935D26FCA35D36FC735006E18
:1011B000C835016EC935026ECA35036E0036013678
:1011C000023603360036013602360336F80E0016B4
:1011D000D0510026D1510122D2510222D3510322F3
:1011E00003C0CAF002C0C9F001C0C8F000C0C7F017
:1011F000300ECE5DC727000EC823C923CA23CD51A8
:10120000CD2B036AC525E96EC6510320EA6EEFCFE8
:10121000CEF0BDD78DD0CC511008D8A489D0CE51F6
:10122000600806E2CE517A0803E3CE51DF0B01D00D
:10123000CE51CE6FCE512F0803E2CE51390807E2CE
:10124000CE514008D8B074D0CE51460871E3CE518B
:101250002F082EE2CE5139082BE3C735D06FC835A1
:10126000D16FC935D26FCA35D36FD037D137D237A6
:10127000D337D037D137D237D337D037D137D2372A
:10128000D337F00ED017300ECE5DD025006E000E95
:10129000D121016E000ED221026E000ED321036E09
:1012A000CA6F02C0C9F001C0C8F000C0C7F02AD0A0
:1012B000C735D06FC835D16FC935D26FCA35D36F36
:1012C000D037D137D237D337D037D137D237D337DA
:1012D000D037D137D237D337F00ED017410ECE5D8D
:1012E0000A0FD025006E000ED121016E000ED22112
:1012F000026E000ED321CA6F02C0C9F001C0C8F04F
:1013000000C0C7F0CD51CD2B036AC525E96EC6518B
:101310000320EA6EEFCFCEF0CE51600806E2CE5148
:101320007A0803E3CE51DF0B01D0CE51CE6F82D7C6
:10133000CC510A080DE1CB2D0BD0C71FC81FC91F08
:10134000CA1FC72BD8B4C82BD8B4C92BD8B4CA2B42
:10135000C7C000F0C8C001F0C9C002F0CAC003F0A5
:101360003EEF0AF08751855D03E18851865D05E017
:1013700082D685C087F086C088F0010E8F278F51F6
:10138000020801E28F6B8F5105E0010A0AE0030AAF
:101390000FE014D093908A8093928A9293948A94C7
:1013A0000DD093928A8293908A9093948A9406D0D7
:1013B00093948A8493928A9293908A90A353D8A408
:1013C00085D080A012D08F5105E0010A06E0030A03
:1013D00007E008D0310E906F05D0320E906F02D02A
:1013E000330E906F140EA36F3BD080A212D08F519A
:1013F00005E0010A06E0030A07E008D0340E906F0A
:1014000005D0350E906F02D0360E906F140EA36F7C
:1014100027D080A412D08F5105E0010A06E0030A0C
:1014200007E008D0370E906F05D0380E906F02D0CD
:10143000390E906F140EA36F13D080A611D08F5168
:1014400005E0010A06E0030A07E008D0230E906FCA
:1014500005D0300E906F02D02A0E906F140EA36F3D
:101460009051230803E1010E916F926B90512A086D
:101470000FE1916BC66B930EC56F23D603C08DF041
:1014800002C08CF001C08BF000C08AF0010E8E6F9C
:101490009051230819E090512A0816E090514E0807
:1014A00013E0036A9251930FE96E000E0320EA6E77
:1014B00090C0EFFF010E9227036A9251930FE96EDD
:1014C000000E0320EA6EEF6A4E0E906FA35302E007
:1014D000010EA35FF29436EF00F081AA03D0010E53
:1014E000856F01D0856B81A803D0010E866F01D076
:1014F000866BF29036EF00F00C5175616E74696482
:101500006164653A0A256C6900000C416C7465726F
:10151000617220706172613A0A2573006D6A696AAE
:10152000080E6F6E94503009946E226A166AF2BEED
:10153000168EF29EE5EC01F016BEF28EA1EF0AF0D7
:10154000EDD7C6EF0AF0166AF2BE168EF29EE5ECF3
:1015500001F016BEF28E6D6A140E6F6E696A6D86AA
:10156000010E226EB7EF0AF06DB601D0ECD7222C37
:101570000BD06DBA09D0686A696AA08AC00EF212EF
:10158000110E696E020E226E1200DAD7EDDF2250C4
:101590000208FCE1D2EF0DF0EA6AB10EE96EEF50FD
:1015A0000DE0060E016E006A002EFED7012EFBD75D
:1015B0007B0E006E002EFED7EF2EF3D71200B8B1CF
:1015C00002D08C9801D08C889598B8B302D08C9AB0
:1015D00001D08C8A959AB8B502D08C9C01D08C8CA5
:1015E000959CB8B702D08C9E01D08C8E959E000041
:1015F0008C869596020E006E002EFED700D000005D
:101600008C9695961200B96B9588000E83B8010EE2
:10161000B913958A000E83BA010E006ED890003679
:101620000050B913958C000E83BC010E006E00367D
:101630000036FC0E00160050B913958E000E83BEC6
:10164000010E006E003600360036F80E001600500F
:10165000B913B9C001F012009588958A958C958EC2
:101660008C84959400008C8695960000CCDF01C098
:10167000B8F08C96959600008C86959600D000D098
:101680000000C1DF01C0B7F08C9695969598959AA9
:10169000959C959EB839006EF00E00160050B7115B
:1016A000016E59EF0BF09596959295948C929592C8
:1016B000D3D701C0B7F001BEFBD7B55302E18C927E
:1016C00001D08C82959200008C94959400008C96A9
:1016D0009596B639B76F0F0EB717B7C0B8F06FDF72
:1016E000B6510F0BB76FB86F6ADF1200280EA56FE7
:1016F0000C0EA66F010EA76F060EA86F8C9695961E
:101700008C9295928C9495949598959A959C959E8B
:101710009596959295940F0EB16F3EDF010EA46FD2
:10172000A451030808E3030EB86F49DF050EB16F3B
:1017300033DFA42BF5D7020EB86F41DF050EB16F72
:101740002BDFA46BA45103080FE3036AA451A50F78
:10175000E96E000E0320EA6EEFCFA9F0B56BA9C0C9
:10176000B6F0A1DFA42BEED7D4EF0DF0B22D01D04F
:1017700003D0400EB36F01D0B36B010EB15DB32740
:10178000B3518009B46FB56BB66F8DDF1200B051E5
:10179000070A07E00B0A0AE0060A10E0020A14E052
:1017A00018D0010EB16FB26FE1DF18D0B56B010E2A
:1017B000B66F79DF020EB16FEFDE10D0010EB16FA0
:1017C000020EB26FD3DF0AD0B56B100EB66F6BDFAF
:1017D00005D0010EB56FB0C0B6F065DF120009008C
:1017E000F6CFA5F0F7CFA6F0F5CFB0F0D0DFA5C0CB
:1017F000F6FFA6C0F7FFA42FF2D71200D8B203D08D
:10180000EA6AB80EE96E006A016A026A036AB86B96
:10181000B96BBA6BBB6BB751B611B511B4112CE0F3
:10182000200EBC6FD890B037B137B237B337B83766
:10183000B937BA37BB37B751BB5D08E1B651BA5DAE
:1018400005E1B551B95D02E1B451B85D0FE3B451A2
:10185000B85FB551D8A0B53DB95FB651D8A0B63D77
:10186000BA5FB751D8A0B73DBB5FD880003601360C
:1018700002360336BC2FD6D7B8C0EFFFB9C0ECFF95
:10188000BAC0ECFFBBC0ECFF1200E950A86FA7AFD5
:101890000DD0A807A88BA41FA51FA61FA71FA42BA8
:1018A000D8B4A52BD8B4A62BD8B4A72B3B0EAF6FBA
:1018B0009A0EAE6FCA0EAD6FAC6B0A0EAA6FD882CD
:1018C000EA6AA40EE96EA7C0B3F0A6C0B2F0A5C044
:1018D000B1F0A4C0B0F0AFC0B7F0AEC0B6F0ADC0CC
:1018E000B5F0ACC0B4F08ADF015000520FE1AA514C
:1018F000010A0CE0A8510CE00F0BAA5D01E024E204
:10190000A8BF22D0A8BD04D0200E1AD0200EA81740
:10191000A8AB09D0A89B00C0A8F02D0EB06F37DF90
:10192000A8C000F0A86B300EA8AB0AD0A89B00C0DE
:10193000A8F02D0EB06F2BDFA8C000F0A86B300E02
:10194000002600C0B0F023DFD892AFC0B3F0AEC025
:10195000B2F0ADC0B1F0ACC0B0F0B76BB66BB56B68
:101960000A0EB46F4BDF03C0AFF002C0AEF001C08F
:10197000ADF000C0ACF0AA2FA2D7E6EF0DF0EF5209
:101980000FE0EACFA5F0E9CFA4F0EFCFB0F0FFDE93
:10199000A5C0EAFFA4C0E9FFE92AD8B4EA2AEFD734
:1019A000F3EF0DF0B391A0BAB381A09A7B513E083A
:1019B00002E23E0E7B6F7B517B2B036A3C0FE96E8C
:1019C000000E0320EA6EB2C0EFFFB3A101D0A08ADF
:1019D000EDEF0CF0B1C0B2F0E5D7166AF2BE168E8C
:1019E000F29E78EC07F016BEF28EFFEF0CF03F0E81
:1019F000D8807B5501E1FBD7B0C0B1F0EBD7120026
:101A0000E950A86FA7AF0DD0A807A88BA41FA51FEA
:101A1000A61FA71FA42BD8B4A52BD8B4A62BD8B427
:101A2000A72B3B0EAF6F9A0EAE6FCA0EAD6FAC6BAD
:101A30000A0EAA6FD882EA6AA40EE96EA7C0B3F0B4
:101A4000A6C0B2F0A5C0B1F0A4C0B0F0AFC0B7F06E
:101A5000AEC0B6F0ADC0B5F0ACC0B4F0CFDE015052
:101A600000520FE1AA51010A0CE0A8510CE00F0B43
:101A7000AA5D01E024E2A8BF22D0A8BD04D0200EB8
:101A80001AD0200EA817A8AB09D0A89B00C0A8F0B8
:101A90002D0EB06FACDFA8C000F0A86B300EA8AB65
:101AA0000AD0A89B00C0A8F02D0EB06FA0DFA8C080
:101AB00000F0A86B300E002600C0B0F098DFD8927E
:101AC000AFC0B3F0AEC0B2F0ADC0B1F0ACC0B0F0DA
:101AD000B76BB66BB56B0A0EB46F90DE03C0AFF098
:101AE00002C0AEF001C0ADF000C0ACF0AA2FA2D78A
:101AF00012EF0EF0F86AD09E078E856B866B876BAF
:101B0000886B896B8D6B8C6B8B6B8A6B010E8E6F08
:101B10008F6B4E0E906F916B926B140EA36FC15032
:101B2000C00B0F09C16E070EB46E1B6A040E1C6E4B
:101B30000C0E1D6E7F6B806B300E936F946BC150DB
:101B4000C00B0F09C16EC050C00BC06EC09EC280DA
:101B50009698C69A949E93809392010EC66E000E3C
:101B6000C76ED190800ED56ECD6A000ECA6E000E83
:101B7000CB6E070EB46E9250926E100E006E002E59
:101B8000FED70000B450A19CB56AF28AF286C00E5E
:101B9000F212166AF2BE168EF29EADEC01F016BE7F
:101BA000F28EF3D4E1DCA2D5F80EF66E140EF76EC9
:101BB0000D0EA46F14DE410EE96E8DC0A7F08CC02F
:101BC000A6F08BC0A5F08AC0A4F05FD6912D1DD0E1
:101BD0000A0EF66E150EF76E0F0EA46F00DEEA6A9F
:101BE000930EE96ECCD6020EA46F960EB16FD4DCC4
:101BF000A42FFBD70C0EB06FCADD020EA46F960E99
:101C0000B16FCADCA42FFBD7E1D78E2D0DD0410ECA
:101C1000E96E8DC0A7F08CC0A6F08BC0A5F08AC07D
:101C2000A4F0EED68E6BF1D7040EA46FFA0EB16F4E
:0A1C3000B3DCA42FFBD7B8D70300E4
:020000040030CA
:0E00000004CC380E0087A1000FC00FE00F40A7
:00000001FF
;PIC18F4550
;CRC=837B  CREATED="26-out-18 13:50"
